{
  "contractName": "SupplyChain",
  "abi": [
    {
      "anonymous": false,
      "inputs": [
        {
          "indexed": false,
          "internalType": "uint256",
          "name": "id",
          "type": "uint256"
        },
        {
          "indexed": false,
          "internalType": "string",
          "name": "name",
          "type": "string"
        },
        {
          "indexed": false,
          "internalType": "string",
          "name": "origin",
          "type": "string"
        },
        {
          "indexed": false,
          "internalType": "uint256",
          "name": "price",
          "type": "uint256"
        }
      ],
      "name": "ProductAdded",
      "type": "event"
    },
    {
      "anonymous": false,
      "inputs": [
        {
          "indexed": false,
          "internalType": "uint256",
          "name": "id",
          "type": "uint256"
        },
        {
          "indexed": false,
          "internalType": "address",
          "name": "newOwner",
          "type": "address"
        },
        {
          "indexed": false,
          "internalType": "enum SupplyChain.Status",
          "name": "status",
          "type": "uint8"
        }
      ],
      "name": "ProductTransferred",
      "type": "event"
    },
    {
      "inputs": [],
      "name": "productCount",
      "outputs": [
        {
          "internalType": "uint256",
          "name": "",
          "type": "uint256"
        }
      ],
      "stateMutability": "view",
      "type": "function",
      "constant": true
    },
    {
      "inputs": [
        {
          "internalType": "uint256",
          "name": "",
          "type": "uint256"
        }
      ],
      "name": "productExists",
      "outputs": [
        {
          "internalType": "bool",
          "name": "",
          "type": "bool"
        }
      ],
      "stateMutability": "view",
      "type": "function",
      "constant": true
    },
    {
      "inputs": [
        {
          "internalType": "uint256",
          "name": "",
          "type": "uint256"
        }
      ],
      "name": "products",
      "outputs": [
        {
          "internalType": "uint256",
          "name": "id",
          "type": "uint256"
        },
        {
          "internalType": "string",
          "name": "name",
          "type": "string"
        },
        {
          "internalType": "string",
          "name": "origin",
          "type": "string"
        },
        {
          "internalType": "enum SupplyChain.Status",
          "name": "status",
          "type": "uint8"
        },
        {
          "internalType": "address",
          "name": "owner",
          "type": "address"
        },
        {
          "internalType": "uint256",
          "name": "price",
          "type": "uint256"
        }
      ],
      "stateMutability": "view",
      "type": "function",
      "constant": true
    },
    {
      "inputs": [
        {
          "internalType": "string",
          "name": "_name",
          "type": "string"
        },
        {
          "internalType": "string",
          "name": "_origin",
          "type": "string"
        },
        {
          "internalType": "uint256",
          "name": "_price",
          "type": "uint256"
        }
      ],
      "name": "addProduct",
      "outputs": [],
      "stateMutability": "nonpayable",
      "type": "function"
    },
    {
      "inputs": [
        {
          "internalType": "uint256",
          "name": "_id",
          "type": "uint256"
        }
      ],
      "name": "buyProduct",
      "outputs": [],
      "stateMutability": "payable",
      "type": "function",
      "payable": true
    },
    {
      "inputs": [
        {
          "internalType": "uint256",
          "name": "_id",
          "type": "uint256"
        },
        {
          "internalType": "address",
          "name": "_newOwner",
          "type": "address"
        }
      ],
      "name": "transferProduct",
      "outputs": [],
      "stateMutability": "nonpayable",
      "type": "function"
    },
    {
      "inputs": [
        {
          "internalType": "uint256",
          "name": "_id",
          "type": "uint256"
        }
      ],
      "name": "confirmDelivery",
      "outputs": [],
      "stateMutability": "nonpayable",
      "type": "function"
    }
  ],
  "bytecode": "0x608060405234801561001057600080fd5b50611457806100206000396000f3fe6080604052600436106100705760003560e01c8063e0f6ef871161004e578063e0f6ef8714610110578063e43059e51461013b578063f28ea1c114610164578063fd84cb971461018d57610070565b80637acc0b20146100755780638642269e146100b7578063af55ed64146100d3575b600080fd5b34801561008157600080fd5b5061009c60048036038101906100979190610dbc565b6101b6565b6040516100ae969594939291906110a9565b60405180910390f35b6100d160048036038101906100cc9190610dbc565b61032f565b005b3480156100df57600080fd5b506100fa60048036038101906100f59190610dbc565b610634565b6040516101079190610fbc565b60405180910390f35b34801561011c57600080fd5b50610125610654565b6040516101329190611057565b60405180910390f35b34801561014757600080fd5b50610162600480360381019061015d9190610de5565b61065a565b005b34801561017057600080fd5b5061018b60048036038101906101869190610d3d565b610857565b005b34801561019957600080fd5b506101b460048036038101906101af9190610dbc565b610a60565b005b60006020528060005260406000206000915090508060000154908060010180546101df90611297565b80601f016020809104026020016040519081016040528092919081815260200182805461020b90611297565b80156102585780601f1061022d57610100808354040283529160200191610258565b820191906000526020600020905b81548152906001019060200180831161023b57829003601f168201915b50505050509080600201805461026d90611297565b80601f016020809104026020016040519081016040528092919081815260200182805461029990611297565b80156102e65780601f106102bb576101008083540402835291602001916102e6565b820191906000526020600020905b8154815290600101906020018083116102c957829003601f168201915b5050505050908060030160009054906101000a900460ff16908060030160019054906101000a900473ffffffffffffffffffffffffffffffffffffffff16908060040154905086565b6001600082815260200190815260200160002060009054906101000a900460ff1661038f576040517f08c379a000000000000000000000000000000000000000000000000000000000815260040161038690610fd7565b60405180910390fd5b600060028111156103c9577f4e487b7100000000000000000000000000000000000000000000000000000000600052602160045260246000fd5b60008083815260200190815260200160002060030160009054906101000a900460ff166002811115610424577f4e487b7100000000000000000000000000000000000000000000000000000000600052602160045260246000fd5b14610464576040517f08c379a000000000000000000000000000000000000000000000000000000000815260040161045b90611037565b60405180910390fd5b6000808281526020019081526020016000206004015434146104bb576040517f08c379a00000000000000000000000000000000000000000000000000000000081526004016104b290611017565b60405180910390fd5b600080600083815260200190815260200160002060030160019054906101000a900473ffffffffffffffffffffffffffffffffffffffff1690503360008084815260200190815260200160002060030160016101000a81548173ffffffffffffffffffffffffffffffffffffffff021916908373ffffffffffffffffffffffffffffffffffffffff160217905550600260008084815260200190815260200160002060030160006101000a81548160ff021916908360028111156105a8577f4e487b7100000000000000000000000000000000000000000000000000000000600052602160045260246000fd5b02179055508073ffffffffffffffffffffffffffffffffffffffff166108fc349081150290604051600060405180830381858888f193505050501580156105f3573d6000803e3d6000fd5b507fb86a6eff8598447756db1ce110527352be781e169093054e84e0ff72ac9775718233600260405161062893929190611072565b60405180910390a15050565b60016020528060005260406000206000915054906101000a900460ff1681565b60025481565b8160008082815260200190815260200160002060030160019054906101000a900473ffffffffffffffffffffffffffffffffffffffff1673ffffffffffffffffffffffffffffffffffffffff163373ffffffffffffffffffffffffffffffffffffffff16146106fe576040517f08c379a00000000000000000000000000000000000000000000000000000000081526004016106f590610ff7565b60405180910390fd5b6001600084815260200190815260200160002060009054906101000a900460ff1661075e576040517f08c379a000000000000000000000000000000000000000000000000000000000815260040161075590610fd7565b60405180910390fd5b8160008085815260200190815260200160002060030160016101000a81548173ffffffffffffffffffffffffffffffffffffffff021916908373ffffffffffffffffffffffffffffffffffffffff160217905550600160008085815260200190815260200160002060030160006101000a81548160ff02191690836002811115610811577f4e487b7100000000000000000000000000000000000000000000000000000000600052602160045260246000fd5b02179055507fb86a6eff8598447756db1ce110527352be781e169093054e84e0ff72ac9775718383600160405161084a93929190611072565b60405180910390a1505050565b6002600081548092919061086a906112c9565b91905055506040518060c001604052806002548152602001848152602001838152602001600060028111156108c8577f4e487b7100000000000000000000000000000000000000000000000000000000600052602160045260246000fd5b81526020013373ffffffffffffffffffffffffffffffffffffffff168152602001828152506000806002548152602001908152602001600020600082015181600001556020820151816001019080519060200190610927929190610c08565b506040820151816002019080519060200190610944929190610c08565b5060608201518160030160006101000a81548160ff02191690836002811115610996577f4e487b7100000000000000000000000000000000000000000000000000000000600052602160045260246000fd5b021790555060808201518160030160016101000a81548173ffffffffffffffffffffffffffffffffffffffff021916908373ffffffffffffffffffffffffffffffffffffffff16021790555060a082015181600401559050506001806000600254815260200190815260200160002060006101000a81548160ff0219169083151502179055507f7a092309290915a35151881d9282456b222c739a7d845acd25a6c13b75d62f13600254848484604051610a539493929190611118565b60405180910390a1505050565b8060008082815260200190815260200160002060030160019054906101000a900473ffffffffffffffffffffffffffffffffffffffff1673ffffffffffffffffffffffffffffffffffffffff163373ffffffffffffffffffffffffffffffffffffffff1614610b04576040517f08c379a0000000000000000000000000000000000000000000000000000000008152600401610afb90610ff7565b60405180910390fd5b6001600083815260200190815260200160002060009054906101000a900460ff16610b64576040517f08c379a0000000000000000000000000000000000000000000000000000000008152600401610b5b90610fd7565b60405180910390fd5b600260008084815260200190815260200160002060030160006101000a81548160ff02191690836002811115610bc3577f4e487b7100000000000000000000000000000000000000000000000000000000600052602160045260246000fd5b02179055507fb86a6eff8598447756db1ce110527352be781e169093054e84e0ff72ac97757182336002604051610bfc93929190611072565b60405180910390a15050565b828054610c1490611297565b90600052602060002090601f016020900481019282610c365760008555610c7d565b82601f10610c4f57805160ff1916838001178555610c7d565b82800160010185558215610c7d579182015b82811115610c7c578251825591602001919060010190610c61565b5b509050610c8a9190610c8e565b5090565b5b80821115610ca7576000816000905550600101610c8f565b5090565b6000610cbe610cb98461119c565b61116b565b905082815260208101848484011115610cd657600080fd5b610ce1848285611255565b509392505050565b600081359050610cf8816113f3565b92915050565b600082601f830112610d0f57600080fd5b8135610d1f848260208601610cab565b91505092915050565b600081359050610d378161140a565b92915050565b600080600060608486031215610d5257600080fd5b600084013567ffffffffffffffff811115610d6c57600080fd5b610d7886828701610cfe565b935050602084013567ffffffffffffffff811115610d9557600080fd5b610da186828701610cfe565b9250506040610db286828701610d28565b9150509250925092565b600060208284031215610dce57600080fd5b6000610ddc84828501610d28565b91505092915050565b60008060408385031215610df857600080fd5b6000610e0685828601610d28565b9250506020610e1785828601610ce9565b9150509250929050565b610e2a816111e8565b82525050565b610e39816111fa565b82525050565b610e4881611243565b82525050565b6000610e59826111cc565b610e6381856111d7565b9350610e73818560208601611264565b610e7c816113ce565b840191505092915050565b6000610e946016836111d7565b91507f50726f6475637420646f6573206e6f74206578697374000000000000000000006000830152602082019050919050565b6000610ed46026836111d7565b91507f4f6e6c7920746865206f776e65722063616e20706572666f726d20746869732060008301527f616374696f6e00000000000000000000000000000000000000000000000000006020830152604082019050919050565b6000610f3a6018836111d7565b91507f496e636f7272656374207061796d656e7420616d6f756e7400000000000000006000830152602082019050919050565b6000610f7a601e836111d7565b91507f50726f64756374206e6f7420617661696c61626c6520666f722073616c6500006000830152602082019050919050565b610fb681611239565b82525050565b6000602082019050610fd16000830184610e30565b92915050565b60006020820190508181036000830152610ff081610e87565b9050919050565b6000602082019050818103600083015261101081610ec7565b9050919050565b6000602082019050818103600083015261103081610f2d565b9050919050565b6000602082019050818103600083015261105081610f6d565b9050919050565b600060208201905061106c6000830184610fad565b92915050565b60006060820190506110876000830186610fad565b6110946020830185610e21565b6110a16040830184610e3f565b949350505050565b600060c0820190506110be6000830189610fad565b81810360208301526110d08188610e4e565b905081810360408301526110e48187610e4e565b90506110f36060830186610e3f565b6111006080830185610e21565b61110d60a0830184610fad565b979650505050505050565b600060808201905061112d6000830187610fad565b818103602083015261113f8186610e4e565b905081810360408301526111538185610e4e565b90506111626060830184610fad565b95945050505050565b6000604051905081810181811067ffffffffffffffff821117156111925761119161139f565b5b8060405250919050565b600067ffffffffffffffff8211156111b7576111b661139f565b5b601f19601f8301169050602081019050919050565b600081519050919050565b600082825260208201905092915050565b60006111f382611219565b9050919050565b60008115159050919050565b6000819050611214826113df565b919050565b600073ffffffffffffffffffffffffffffffffffffffff82169050919050565b6000819050919050565b600061124e82611206565b9050919050565b82818337600083830152505050565b60005b83811015611282578082015181840152602081019050611267565b83811115611291576000848401525b50505050565b600060028204905060018216806112af57607f821691505b602082108114156112c3576112c2611370565b5b50919050565b60006112d482611239565b91507fffffffffffffffffffffffffffffffffffffffffffffffffffffffffffffffff82141561130757611306611312565b5b600182019050919050565b7f4e487b7100000000000000000000000000000000000000000000000000000000600052601160045260246000fd5b7f4e487b7100000000000000000000000000000000000000000000000000000000600052602160045260246000fd5b7f4e487b7100000000000000000000000000000000000000000000000000000000600052602260045260246000fd5b7f4e487b7100000000000000000000000000000000000000000000000000000000600052604160045260246000fd5b6000601f19601f8301169050919050565b600381106113f0576113ef611341565b5b50565b6113fc816111e8565b811461140757600080fd5b50565b61141381611239565b811461141e57600080fd5b5056fea2646970667358221220009ed2772e08ab809c0a2bb15e2c796c1d995e9ea907aae11c393a09daf0802b64736f6c63430008000033",
  "immutableReferences": {},
  "source": "// SPDX-License-Identifier: MIT\r\npragma solidity ^0.8.0;\r\n\r\ncontract SupplyChain {\r\n    enum Status { Produced, InTransit, Sold }\r\n    \r\n    struct Product {\r\n        uint id;\r\n        string name;\r\n        string origin;\r\n        Status status;\r\n        address owner;\r\n        uint price;\r\n    }\r\n\r\n    mapping(uint => Product) public products;\r\n    mapping(uint => bool) public productExists;\r\n    uint public productCount;\r\n\r\n    event ProductAdded(uint id, string name, string origin, uint price);\r\n    event ProductTransferred(uint id, address newOwner, Status status);\r\n\r\n    modifier onlyOwner(uint _id) {\r\n        require(msg.sender == products[_id].owner, \"Only the owner can perform this action\");\r\n        _;\r\n    }\r\n\r\n    function addProduct(string memory _name, string memory _origin, uint _price) public {\r\n        productCount++;\r\n        products[productCount] = Product(productCount, _name, _origin, Status.Produced, msg.sender, _price);\r\n        productExists[productCount] = true;\r\n        emit ProductAdded(productCount, _name, _origin, _price);\r\n    }\r\n\r\n    function buyProduct(uint _id) public payable {\r\n        require(productExists[_id], \"Product does not exist\");\r\n        require(products[_id].status == Status.Produced, \"Product not available for sale\");\r\n        require(msg.value == products[_id].price, \"Incorrect payment amount\");\r\n\r\n        address seller = products[_id].owner;\r\n        products[_id].owner = msg.sender;\r\n        products[_id].status = Status.Sold;\r\n        \r\n        payable(seller).transfer(msg.value);  // Transfer payment to the seller\r\n        \r\n        emit ProductTransferred(_id, msg.sender, Status.Sold);\r\n    }\r\n\r\n    function transferProduct(uint _id, address _newOwner) public onlyOwner(_id) {\r\n        require(productExists[_id], \"Product does not exist\");\r\n        products[_id].owner = _newOwner;\r\n        products[_id].status = Status.InTransit;\r\n        emit ProductTransferred(_id, _newOwner, Status.InTransit);\r\n    }\r\n\r\n    function confirmDelivery(uint _id) public onlyOwner(_id) {\r\n        require(productExists[_id], \"Product does not exist\");\r\n        products[_id].status = Status.Sold;\r\n        emit ProductTransferred(_id, msg.sender, Status.Sold);\r\n    }\r\n}\r\n",
  "sourcePath": "C:\\Users\\user\\agri_supplychain\\contracts\\supplychain.sol",
  "compiler": {
    "name": "solc",
    "version": "0.8.0+commit.c7dfd78e.Emscripten.clang"
  },
  "schemaVersion": "3.4.16",
  "updatedAt": "2024-11-10T08:52:07.452Z",
  "networkType": "ethereum",
  "devdoc": {
    "kind": "dev",
    "methods": {},
    "version": 1
  },
  "userdoc": {
    "kind": "user",
    "methods": {},
    "version": 1
  }
}